{
  "transactions": [
    {
      "hash": "0x5450199673b55ef66d96559d3db3fd89095ecf40d85513f88bc5627d746ca6be",
      "transactionType": "CALL",
      "contractName": null,
      "contractAddress": "0xf4FA490F4600a57A7E0d73dA0aA96cB9c1B6f7A6",
      "function": "updateAnswer(int256)",
      "arguments": ["230000000000000000000000"],
      "transaction": {
        "type": "0x02",
        "from": "0xa52a878ce46f233794fee5c976eb2528e17510d7",
        "to": "0xf4fa490f4600a57a7e0d73da0aa96cb9c1b6f7a6",
        "gas": "0x2719e",
        "value": "0x0",
        "data": "0xa87a20ce0000000000000000000000000000000000000000000030b453321fc603c00000",
        "nonce": "0xaa",
        "accessList": []
      },
      "additionalContracts": [],
      "isFixedGasLimit": false
    },
    {
      "hash": "0x54af4e1144a5137e580a9eb251b83c24577ad81de9855bfa19099bdaf91493a7",
      "transactionType": "CALL",
      "contractName": null,
      "contractAddress": "0xaAC8EAc22df7eF4350B6cB4453Af07f33210D888",
      "function": "updateAnswer(int256)",
      "arguments": ["100000000"],
      "transaction": {
        "type": "0x02",
        "from": "0xa52a878ce46f233794fee5c976eb2528e17510d7",
        "to": "0xaac8eac22df7ef4350b6cb4453af07f33210d888",
        "gas": "0x2714b",
        "value": "0x0",
        "data": "0xa87a20ce0000000000000000000000000000000000000000000000000000000005f5e100",
        "nonce": "0xab",
        "accessList": []
      },
      "additionalContracts": [],
      "isFixedGasLimit": false
    },
    {
      "hash": "0xbfec486dfaeec8d9be5010ae91b95f398f51a16aea09141d97b4eba30bce0156",
      "transactionType": "CALL",
      "contractName": null,
      "contractAddress": "0x376e46d54AabfEd100aD1F4E252fe801bFdeC092",
      "function": null,
      "arguments": null,
      "transaction": {
        "type": "0x02",
        "from": "0xa52a878ce46f233794fee5c976eb2528e17510d7",
        "to": "0x376e46d54aabfed100ad1f4e252fe801bfdec092",
        "gas": "0x82e18",
        "value": "0x0",
        "data": "0x94bf804d000000000000000000000000000000000000000000000000002386f26fc10000000000000000000000000000a52a878ce46f233794fee5c976eb2528e17510d7",
        "nonce": "0xac",
        "accessList": []
      },
      "additionalContracts": [],
      "isFixedGasLimit": false
    }
  ],
  "receipts": [],
  "libraries": [],
  "pending": [
    "0x5450199673b55ef66d96559d3db3fd89095ecf40d85513f88bc5627d746ca6be",
    "0x54af4e1144a5137e580a9eb251b83c24577ad81de9855bfa19099bdaf91493a7",
    "0xbfec486dfaeec8d9be5010ae91b95f398f51a16aea09141d97b4eba30bce0156"
  ],
  "returns": {},
  "timestamp": 1709581702,
  "chain": 11155111,
  "multi": false,
  "commit": "dcbc4d6"
}
