{
  "transactions": [
    {
      "hash": "0xd31d8fed7c9ae9a99f6566340218a38506ad2bf0d40f7f9cfb43ea0f3f6248fb",
      "transactionType": "CALL",
      "contractName": null,
      "contractAddress": "0xf4FA490F4600a57A7E0d73dA0aA96cB9c1B6f7A6",
      "function": "updateAnswer(int256)",
      "arguments": ["230000000000000000000000"],
      "transaction": {
        "type": "0x02",
        "from": "0xa52a878ce46f233794fee5c976eb2528e17510d7",
        "to": "0xf4fa490f4600a57a7e0d73da0aa96cb9c1b6f7a6",
        "gas": "0x2719e",
        "value": "0x0",
        "data": "0xa87a20ce0000000000000000000000000000000000000000000030b453321fc603c00000",
        "nonce": "0x9d",
        "accessList": []
      },
      "additionalContracts": [],
      "isFixedGasLimit": false
    },
    {
      "hash": "0x5e9b2b27357bfa4f9fab54cd9d6ad69ec50acb4aeacbb70567a394510fa5b69a",
      "transactionType": "CALL",
      "contractName": null,
      "contractAddress": "0xaAC8EAc22df7eF4350B6cB4453Af07f33210D888",
      "function": "updateAnswer(int256)",
      "arguments": ["100000000"],
      "transaction": {
        "type": "0x02",
        "from": "0xa52a878ce46f233794fee5c976eb2528e17510d7",
        "to": "0xaac8eac22df7ef4350b6cb4453af07f33210d888",
        "gas": "0x2714b",
        "value": "0x0",
        "data": "0xa87a20ce0000000000000000000000000000000000000000000000000000000005f5e100",
        "nonce": "0x9e",
        "accessList": []
      },
      "additionalContracts": [],
      "isFixedGasLimit": false
    },
    {
      "hash": null,
      "transactionType": "CALL",
      "contractName": null,
      "contractAddress": "0x4F5e836680b9aac98dFA2af775D29Bdd8C68cB91",
      "function": "mint(address,uint256)",
      "arguments": ["0xA52A878CE46F233794FeE5c976eb2528e17510d7", "10000000000000000000000000000000000000000"],
      "transaction": {
        "type": "0x02",
        "from": "0xa52a878ce46f233794fee5c976eb2528e17510d7",
        "to": "0x4f5e836680b9aac98dfa2af775d29bdd8c68cb91",
        "gas": "0x11439",
        "value": "0x0",
        "data": "0x40c10f19000000000000000000000000a52a878ce46f233794fee5c976eb2528e17510d70000000000000000000000000000001d6329f1c35ca4bfabb9f5610000000000",
        "nonce": "0x9f",
        "accessList": []
      },
      "additionalContracts": [],
      "isFixedGasLimit": false
    },
    {
      "hash": null,
      "transactionType": "CALL",
      "contractName": null,
      "contractAddress": "0xb3f2f6Ed18514F55a2963C78fc2C23cB1FBd8806",
      "function": "mint(address,uint256)",
      "arguments": ["0xA52A878CE46F233794FeE5c976eb2528e17510d7", "10000000000000000000000000000000000000000"],
      "transaction": {
        "type": "0x02",
        "from": "0xa52a878ce46f233794fee5c976eb2528e17510d7",
        "to": "0xb3f2f6ed18514f55a2963c78fc2c23cb1fbd8806",
        "gas": "0x11439",
        "value": "0x0",
        "data": "0x40c10f19000000000000000000000000a52a878ce46f233794fee5c976eb2528e17510d70000000000000000000000000000001d6329f1c35ca4bfabb9f5610000000000",
        "nonce": "0xa0",
        "accessList": []
      },
      "additionalContracts": [],
      "isFixedGasLimit": false
    },
    {
      "hash": null,
      "transactionType": "CALL",
      "contractName": null,
      "contractAddress": "0x4F5e836680b9aac98dFA2af775D29Bdd8C68cB91",
      "function": "approve(address,uint256)",
      "arguments": ["0x5E29dD90997caD3816FF08C2dE085D4DaD93e757", "10000000000000000000000000000000000000000"],
      "transaction": {
        "type": "0x02",
        "from": "0xa52a878ce46f233794fee5c976eb2528e17510d7",
        "to": "0x4f5e836680b9aac98dfa2af775d29bdd8c68cb91",
        "gas": "0x1088b",
        "value": "0x0",
        "data": "0x095ea7b30000000000000000000000005e29dd90997cad3816ff08c2de085d4dad93e7570000000000000000000000000000001d6329f1c35ca4bfabb9f5610000000000",
        "nonce": "0xa1",
        "accessList": []
      },
      "additionalContracts": [],
      "isFixedGasLimit": false
    },
    {
      "hash": null,
      "transactionType": "CALL",
      "contractName": null,
      "contractAddress": "0xb3f2f6Ed18514F55a2963C78fc2C23cB1FBd8806",
      "function": "approve(address,uint256)",
      "arguments": ["0x5E29dD90997caD3816FF08C2dE085D4DaD93e757", "10000000000000000000000000000000000000000"],
      "transaction": {
        "type": "0x02",
        "from": "0xa52a878ce46f233794fee5c976eb2528e17510d7",
        "to": "0xb3f2f6ed18514f55a2963c78fc2c23cb1fbd8806",
        "gas": "0x1088b",
        "value": "0x0",
        "data": "0x095ea7b30000000000000000000000005e29dd90997cad3816ff08c2de085d4dad93e7570000000000000000000000000000001d6329f1c35ca4bfabb9f5610000000000",
        "nonce": "0xa2",
        "accessList": []
      },
      "additionalContracts": [],
      "isFixedGasLimit": false
    },
    {
      "hash": null,
      "transactionType": "CALL",
      "contractName": null,
      "contractAddress": "0x376e46d54AabfEd100aD1F4E252fe801bFdeC092",
      "function": null,
      "arguments": null,
      "transaction": {
        "type": "0x02",
        "from": "0xa52a878ce46f233794fee5c976eb2528e17510d7",
        "to": "0x376e46d54aabfed100ad1f4e252fe801bfdec092",
        "gas": "0x82e18",
        "value": "0x0",
        "data": "0x94bf804d000000000000000000000000000000000000000000000000002386f26fc10000000000000000000000000000a52a878ce46f233794fee5c976eb2528e17510d7",
        "nonce": "0xa3",
        "accessList": []
      },
      "additionalContracts": [],
      "isFixedGasLimit": false
    }
  ],
  "receipts": [],
  "libraries": [],
  "pending": [
    "0xd31d8fed7c9ae9a99f6566340218a38506ad2bf0d40f7f9cfb43ea0f3f6248fb",
    "0x5e9b2b27357bfa4f9fab54cd9d6ad69ec50acb4aeacbb70567a394510fa5b69a"
  ],
  "returns": {},
  "timestamp": 1709581564,
  "chain": 11155111,
  "multi": false,
  "commit": "dcbc4d6"
}
