{
  "transactions": [
    {
      "hash": "0x1dd8538e11b32960c433d4d1cec784f852f821fc35534f7cc5576632ea966e67",
      "transactionType": "CALL",
      "contractName": null,
      "contractAddress": "0xf4FA490F4600a57A7E0d73dA0aA96cB9c1B6f7A6",
      "function": "updateAnswer(int256)",
      "arguments": ["230000000000000000000000"],
      "transaction": {
        "type": "0x02",
        "from": "0xa52a878ce46f233794fee5c976eb2528e17510d7",
        "to": "0xf4fa490f4600a57a7e0d73da0aa96cb9c1b6f7a6",
        "gas": "0x2719e",
        "value": "0x0",
        "data": "0xa87a20ce0000000000000000000000000000000000000000000030b453321fc603c00000",
        "nonce": "0xa4",
        "accessList": []
      },
      "additionalContracts": [],
      "isFixedGasLimit": false
    },
    {
      "hash": "0x196f06f625302e7d15a63db6e5482209df2fba002024ebc97c73f2b8133781ea",
      "transactionType": "CALL",
      "contractName": null,
      "contractAddress": "0xaAC8EAc22df7eF4350B6cB4453Af07f33210D888",
      "function": "updateAnswer(int256)",
      "arguments": ["100000000"],
      "transaction": {
        "type": "0x02",
        "from": "0xa52a878ce46f233794fee5c976eb2528e17510d7",
        "to": "0xaac8eac22df7ef4350b6cb4453af07f33210d888",
        "gas": "0x2714b",
        "value": "0x0",
        "data": "0xa87a20ce0000000000000000000000000000000000000000000000000000000005f5e100",
        "nonce": "0xa5",
        "accessList": []
      },
      "additionalContracts": [],
      "isFixedGasLimit": false
    },
    {
      "hash": "0x01682ca702a4daa1c0b516cc8d89a42f2e9b09c43ab1f2f9aae00975d2892b9f",
      "transactionType": "CALL",
      "contractName": null,
      "contractAddress": "0x4F5e836680b9aac98dFA2af775D29Bdd8C68cB91",
      "function": "mint(address,uint256)",
      "arguments": ["0xA52A878CE46F233794FeE5c976eb2528e17510d7", "10000000000000000000000000000000000000000"],
      "transaction": {
        "type": "0x02",
        "from": "0xa52a878ce46f233794fee5c976eb2528e17510d7",
        "to": "0x4f5e836680b9aac98dfa2af775d29bdd8c68cb91",
        "gas": "0x11439",
        "value": "0x0",
        "data": "0x40c10f19000000000000000000000000a52a878ce46f233794fee5c976eb2528e17510d70000000000000000000000000000001d6329f1c35ca4bfabb9f5610000000000",
        "nonce": "0xa6",
        "accessList": []
      },
      "additionalContracts": [],
      "isFixedGasLimit": false
    },
    {
      "hash": "0x3670ab9135c5c1a4bbf8869a4867d3448d539e8a6da7cb8a09d2479048f40568",
      "transactionType": "CALL",
      "contractName": null,
      "contractAddress": "0xb3f2f6Ed18514F55a2963C78fc2C23cB1FBd8806",
      "function": "mint(address,uint256)",
      "arguments": ["0xA52A878CE46F233794FeE5c976eb2528e17510d7", "10000000000000000000000000000000000000000"],
      "transaction": {
        "type": "0x02",
        "from": "0xa52a878ce46f233794fee5c976eb2528e17510d7",
        "to": "0xb3f2f6ed18514f55a2963c78fc2c23cb1fbd8806",
        "gas": "0xb7f7",
        "value": "0x0",
        "data": "0x40c10f19000000000000000000000000a52a878ce46f233794fee5c976eb2528e17510d70000000000000000000000000000001d6329f1c35ca4bfabb9f5610000000000",
        "nonce": "0xa7",
        "accessList": []
      },
      "additionalContracts": [],
      "isFixedGasLimit": false
    },
    {
      "hash": "0x6125cc53e909490520039ebd234625f9a5a2acb0ff00ab4f76c99cd59eafe7d8",
      "transactionType": "CALL",
      "contractName": null,
      "contractAddress": "0x4F5e836680b9aac98dFA2af775D29Bdd8C68cB91",
      "function": "approve(address,uint256)",
      "arguments": ["0x5E29dD90997caD3816FF08C2dE085D4DaD93e757", "10000000000000000000000000000000000000000"],
      "transaction": {
        "type": "0x02",
        "from": "0xa52a878ce46f233794fee5c976eb2528e17510d7",
        "to": "0x4f5e836680b9aac98dfa2af775d29bdd8c68cb91",
        "gas": "0x8e7a",
        "value": "0x0",
        "data": "0x095ea7b30000000000000000000000005e29dd90997cad3816ff08c2de085d4dad93e7570000000000000000000000000000001d6329f1c35ca4bfabb9f5610000000000",
        "nonce": "0xa8",
        "accessList": []
      },
      "additionalContracts": [],
      "isFixedGasLimit": false
    },
    {
      "hash": "0x66c8f4c1865fed72121507d0959bb81926997cbfafa0c4e83f7d04783ea08310",
      "transactionType": "CALL",
      "contractName": null,
      "contractAddress": "0xb3f2f6Ed18514F55a2963C78fc2C23cB1FBd8806",
      "function": "approve(address,uint256)",
      "arguments": ["0x5E29dD90997caD3816FF08C2dE085D4DaD93e757", "10000000000000000000000000000000000000000"],
      "transaction": {
        "type": "0x02",
        "from": "0xa52a878ce46f233794fee5c976eb2528e17510d7",
        "to": "0xb3f2f6ed18514f55a2963c78fc2c23cb1fbd8806",
        "gas": "0x8e7a",
        "value": "0x0",
        "data": "0x095ea7b30000000000000000000000005e29dd90997cad3816ff08c2de085d4dad93e7570000000000000000000000000000001d6329f1c35ca4bfabb9f5610000000000",
        "nonce": "0xa9",
        "accessList": []
      },
      "additionalContracts": [],
      "isFixedGasLimit": false
    }
  ],
  "receipts": [],
  "libraries": [],
  "pending": [
    "0x1dd8538e11b32960c433d4d1cec784f852f821fc35534f7cc5576632ea966e67",
    "0x196f06f625302e7d15a63db6e5482209df2fba002024ebc97c73f2b8133781ea",
    "0x01682ca702a4daa1c0b516cc8d89a42f2e9b09c43ab1f2f9aae00975d2892b9f",
    "0x3670ab9135c5c1a4bbf8869a4867d3448d539e8a6da7cb8a09d2479048f40568",
    "0x6125cc53e909490520039ebd234625f9a5a2acb0ff00ab4f76c99cd59eafe7d8",
    "0x66c8f4c1865fed72121507d0959bb81926997cbfafa0c4e83f7d04783ea08310"
  ],
  "returns": {},
  "timestamp": 1709581607,
  "chain": 11155111,
  "multi": false,
  "commit": "dcbc4d6"
}
