{
  "transactions": [
    {
      "hash": "0x55e5be58e51a47f2b992fc67c4e9716051f2f1cab3481b4e10d1d6437e656227",
      "transactionType": "CALL",
      "contractName": null,
      "contractAddress": "0xf4FA490F4600a57A7E0d73dA0aA96cB9c1B6f7A6",
      "function": "updateAnswer(int256)",
      "arguments": ["229900000000"],
      "transaction": {
        "type": "0x02",
        "from": "0xa52a878ce46f233794fee5c976eb2528e17510d7",
        "to": "0xf4fa490f4600a57a7e0d73da0aa96cb9c1b6f7a6",
        "gas": "0x2715c",
        "value": "0x0",
        "data": "0xa87a20ce00000000000000000000000000000000000000000000000000000035871b9b00",
        "nonce": "0x93",
        "accessList": []
      },
      "additionalContracts": [],
      "isFixedGasLimit": false
    },
    {
      "hash": "0x195dc7c238443da4335432cb8e2154ea401dc0ffc046bd7fd3df57c746efdea4",
      "transactionType": "CALL",
      "contractName": null,
      "contractAddress": "0xaAC8EAc22df7eF4350B6cB4453Af07f33210D888",
      "function": "updateAnswer(int256)",
      "arguments": ["100000000"],
      "transaction": {
        "type": "0x02",
        "from": "0xa52a878ce46f233794fee5c976eb2528e17510d7",
        "to": "0xaac8eac22df7ef4350b6cb4453af07f33210d888",
        "gas": "0x2cd8f",
        "value": "0x0",
        "data": "0xa87a20ce0000000000000000000000000000000000000000000000000000000005f5e100",
        "nonce": "0x94",
        "accessList": []
      },
      "additionalContracts": [],
      "isFixedGasLimit": false
    }
  ],
  "receipts": [],
  "libraries": [],
  "pending": [
    "0x55e5be58e51a47f2b992fc67c4e9716051f2f1cab3481b4e10d1d6437e656227",
    "0x195dc7c238443da4335432cb8e2154ea401dc0ffc046bd7fd3df57c746efdea4"
  ],
  "returns": {},
  "timestamp": 1709572844,
  "chain": 11155111,
  "multi": false,
  "commit": "c67dcd4"
}
