{
  "transactions": [
    {
      "hash": "0x5450199673b55ef66d96559d3db3fd89095ecf40d85513f88bc5627d746ca6be",
      "transactionType": "CALL",
      "contractName": null,
      "contractAddress": "0xf4FA490F4600a57A7E0d73dA0aA96cB9c1B6f7A6",
      "function": "updateAnswer(int256)",
      "arguments": ["230000000000000000000000"],
      "transaction": {
        "type": "0x02",
        "from": "0xa52a878ce46f233794fee5c976eb2528e17510d7",
        "to": "0xf4fa490f4600a57a7e0d73da0aa96cb9c1b6f7a6",
        "gas": "0x2719e",
        "value": "0x0",
        "data": "0xa87a20ce0000000000000000000000000000000000000000000030b453321fc603c00000",
        "nonce": "0xaa",
        "accessList": []
      },
      "additionalContracts": [],
      "isFixedGasLimit": false
    },
    {
      "hash": "0x54af4e1144a5137e580a9eb251b83c24577ad81de9855bfa19099bdaf91493a7",
      "transactionType": "CALL",
      "contractName": null,
      "contractAddress": "0xaAC8EAc22df7eF4350B6cB4453Af07f33210D888",
      "function": "updateAnswer(int256)",
      "arguments": ["100000000"],
      "transaction": {
        "type": "0x02",
        "from": "0xa52a878ce46f233794fee5c976eb2528e17510d7",
        "to": "0xaac8eac22df7ef4350b6cb4453af07f33210d888",
        "gas": "0x2714b",
        "value": "0x0",
        "data": "0xa87a20ce0000000000000000000000000000000000000000000000000000000005f5e100",
        "nonce": "0xab",
        "accessList": []
      },
      "additionalContracts": [],
      "isFixedGasLimit": false
    },
    {
      "hash": "0xbfec486dfaeec8d9be5010ae91b95f398f51a16aea09141d97b4eba30bce0156",
      "transactionType": "CALL",
      "contractName": null,
      "contractAddress": "0x376e46d54AabfEd100aD1F4E252fe801bFdeC092",
      "function": null,
      "arguments": null,
      "transaction": {
        "type": "0x02",
        "from": "0xa52a878ce46f233794fee5c976eb2528e17510d7",
        "to": "0x376e46d54aabfed100ad1f4e252fe801bfdec092",
        "gas": "0x82e18",
        "value": "0x0",
        "data": "0x94bf804d000000000000000000000000000000000000000000000000002386f26fc10000000000000000000000000000a52a878ce46f233794fee5c976eb2528e17510d7",
        "nonce": "0xac",
        "accessList": []
      },
      "additionalContracts": [],
      "isFixedGasLimit": false
    }
  ],
  "receipts": [
    {
      "transactionHash": "0x5450199673b55ef66d96559d3db3fd89095ecf40d85513f88bc5627d746ca6be",
      "transactionIndex": "0x15",
      "blockHash": "0xc59f55ad0267f9cae3f46215aa3d81f22474e00e688ba894686a36aa501948c8",
      "blockNumber": "0x52a773",
      "from": "0xA52A878CE46F233794FeE5c976eb2528e17510d7",
      "to": "0xf4FA490F4600a57A7E0d73dA0aA96cB9c1B6f7A6",
      "cumulativeGasUsed": "0x135f8a",
      "gasUsed": "0x1c4f0",
      "contractAddress": null,
      "logs": [],
      "status": "0x1",
      "logsBloom": "0x00000000000000000000000000000000000000000000000000000000000000000000000000000000000000000000000000000000000000000000000000000000000000000000000000000000000000000000000000000000000000000000000000000000000000000000000000000000000000000000000000000000000000000000000000000000000000000000000000000000000000000000000000000000000000000000000000000000000000000000000000000000000000000000000000000000000000000000000000000000000000000000000000000000000000000000000000000000000000000000000000000000000000000000000000000000",
      "type": "0x2",
      "effectiveGasPrice": "0xb9796e0d"
    },
    {
      "transactionHash": "0x54af4e1144a5137e580a9eb251b83c24577ad81de9855bfa19099bdaf91493a7",
      "transactionIndex": "0x16",
      "blockHash": "0xc59f55ad0267f9cae3f46215aa3d81f22474e00e688ba894686a36aa501948c8",
      "blockNumber": "0x52a773",
      "from": "0xA52A878CE46F233794FeE5c976eb2528e17510d7",
      "to": "0xaAC8EAc22df7eF4350B6cB4453Af07f33210D888",
      "cumulativeGasUsed": "0x15243e",
      "gasUsed": "0x1c4b4",
      "contractAddress": null,
      "logs": [],
      "status": "0x1",
      "logsBloom": "0x00000000000000000000000000000000000000000000000000000000000000000000000000000000000000000000000000000000000000000000000000000000000000000000000000000000000000000000000000000000000000000000000000000000000000000000000000000000000000000000000000000000000000000000000000000000000000000000000000000000000000000000000000000000000000000000000000000000000000000000000000000000000000000000000000000000000000000000000000000000000000000000000000000000000000000000000000000000000000000000000000000000000000000000000000000000",
      "type": "0x2",
      "effectiveGasPrice": "0xb9796e0d"
    },
    {
      "transactionHash": "0xbfec486dfaeec8d9be5010ae91b95f398f51a16aea09141d97b4eba30bce0156",
      "transactionIndex": "0x17",
      "blockHash": "0xc59f55ad0267f9cae3f46215aa3d81f22474e00e688ba894686a36aa501948c8",
      "blockNumber": "0x52a773",
      "from": "0xA52A878CE46F233794FeE5c976eb2528e17510d7",
      "to": "0x376e46d54AabfEd100aD1F4E252fe801bFdeC092",
      "cumulativeGasUsed": "0x1b1055",
      "gasUsed": "0x5ec17",
      "contractAddress": null,
      "logs": [
        {
          "address": "0x376e46d54AabfEd100aD1F4E252fe801bFdeC092",
          "topics": [
            "0xddf252ad1be2c89b69c2b068fc378daa952ba7f163c4a11628f55a4df523b3ef",
            "0x0000000000000000000000000000000000000000000000000000000000000000",
            "0x000000000000000000000000a52a878ce46f233794fee5c976eb2528e17510d7"
          ],
          "data": "0x000000000000000000000000000000000000000000000000002386f26fc10000",
          "blockHash": "0xc59f55ad0267f9cae3f46215aa3d81f22474e00e688ba894686a36aa501948c8",
          "blockNumber": "0x52a773",
          "transactionHash": "0xbfec486dfaeec8d9be5010ae91b95f398f51a16aea09141d97b4eba30bce0156",
          "transactionIndex": "0x17",
          "logIndex": "0x21",
          "removed": false
        },
        {
          "address": "0x4F5e836680b9aac98dFA2af775D29Bdd8C68cB91",
          "topics": [
            "0x8c5be1e5ebec7d5bd14f71427d1e84f3dd0314c0f7b2291e5b200ac8c7c3b925",
            "0x000000000000000000000000a52a878ce46f233794fee5c976eb2528e17510d7",
            "0x0000000000000000000000005e29dd90997cad3816ff08c2de085d4dad93e757"
          ],
          "data": "0x0000000000000000000000000000001d6329f1c35ca4bfabb9f560fffeced300",
          "blockHash": "0xc59f55ad0267f9cae3f46215aa3d81f22474e00e688ba894686a36aa501948c8",
          "blockNumber": "0x52a773",
          "transactionHash": "0xbfec486dfaeec8d9be5010ae91b95f398f51a16aea09141d97b4eba30bce0156",
          "transactionIndex": "0x17",
          "logIndex": "0x22",
          "removed": false
        },
        {
          "address": "0x4F5e836680b9aac98dFA2af775D29Bdd8C68cB91",
          "topics": [
            "0xddf252ad1be2c89b69c2b068fc378daa952ba7f163c4a11628f55a4df523b3ef",
            "0x000000000000000000000000a52a878ce46f233794fee5c976eb2528e17510d7",
            "0x0000000000000000000000005e29dd90997cad3816ff08c2de085d4dad93e757"
          ],
          "data": "0x0000000000000000000000000000000000000000000000000000000001312d00",
          "blockHash": "0xc59f55ad0267f9cae3f46215aa3d81f22474e00e688ba894686a36aa501948c8",
          "blockNumber": "0x52a773",
          "transactionHash": "0xbfec486dfaeec8d9be5010ae91b95f398f51a16aea09141d97b4eba30bce0156",
          "transactionIndex": "0x17",
          "logIndex": "0x23",
          "removed": false
        },
        {
          "address": "0xb3f2f6Ed18514F55a2963C78fc2C23cB1FBd8806",
          "topics": [
            "0x8c5be1e5ebec7d5bd14f71427d1e84f3dd0314c0f7b2291e5b200ac8c7c3b925",
            "0x000000000000000000000000a52a878ce46f233794fee5c976eb2528e17510d7",
            "0x0000000000000000000000005e29dd90997cad3816ff08c2de085d4dad93e757"
          ],
          "data": "0x0000000000000000000000000000001d6329f1c35ca4bfabb9d1da0d903f0000",
          "blockHash": "0xc59f55ad0267f9cae3f46215aa3d81f22474e00e688ba894686a36aa501948c8",
          "blockNumber": "0x52a773",
          "transactionHash": "0xbfec486dfaeec8d9be5010ae91b95f398f51a16aea09141d97b4eba30bce0156",
          "transactionIndex": "0x17",
          "logIndex": "0x24",
          "removed": false
        },
        {
          "address": "0xb3f2f6Ed18514F55a2963C78fc2C23cB1FBd8806",
          "topics": [
            "0xddf252ad1be2c89b69c2b068fc378daa952ba7f163c4a11628f55a4df523b3ef",
            "0x000000000000000000000000a52a878ce46f233794fee5c976eb2528e17510d7",
            "0x0000000000000000000000005e29dd90997cad3816ff08c2de085d4dad93e757"
          ],
          "data": "0x000000000000000000000000000000000000000000000000002386f26fc10000",
          "blockHash": "0xc59f55ad0267f9cae3f46215aa3d81f22474e00e688ba894686a36aa501948c8",
          "blockNumber": "0x52a773",
          "transactionHash": "0xbfec486dfaeec8d9be5010ae91b95f398f51a16aea09141d97b4eba30bce0156",
          "transactionIndex": "0x17",
          "logIndex": "0x25",
          "removed": false
        },
        {
          "address": "0x4F5e836680b9aac98dFA2af775D29Bdd8C68cB91",
          "topics": [
            "0x8c5be1e5ebec7d5bd14f71427d1e84f3dd0314c0f7b2291e5b200ac8c7c3b925",
            "0x0000000000000000000000005e29dd90997cad3816ff08c2de085d4dad93e757",
            "0x000000000000000000000000f678f3df67ebea04b3a0c1c2636eec2504c92ba2"
          ],
          "data": "0x0000000000000000000000000000000000000000000000000000000001312d00",
          "blockHash": "0xc59f55ad0267f9cae3f46215aa3d81f22474e00e688ba894686a36aa501948c8",
          "blockNumber": "0x52a773",
          "transactionHash": "0xbfec486dfaeec8d9be5010ae91b95f398f51a16aea09141d97b4eba30bce0156",
          "transactionIndex": "0x17",
          "logIndex": "0x26",
          "removed": false
        },
        {
          "address": "0xb3f2f6Ed18514F55a2963C78fc2C23cB1FBd8806",
          "topics": [
            "0x8c5be1e5ebec7d5bd14f71427d1e84f3dd0314c0f7b2291e5b200ac8c7c3b925",
            "0x0000000000000000000000005e29dd90997cad3816ff08c2de085d4dad93e757",
            "0x000000000000000000000000f678f3df67ebea04b3a0c1c2636eec2504c92ba2"
          ],
          "data": "0x000000000000000000000000000000000000000000000000002386f26fc10000",
          "blockHash": "0xc59f55ad0267f9cae3f46215aa3d81f22474e00e688ba894686a36aa501948c8",
          "blockNumber": "0x52a773",
          "transactionHash": "0xbfec486dfaeec8d9be5010ae91b95f398f51a16aea09141d97b4eba30bce0156",
          "transactionIndex": "0x17",
          "logIndex": "0x27",
          "removed": false
        },
        {
          "address": "0x4F5e836680b9aac98dFA2af775D29Bdd8C68cB91",
          "topics": [
            "0x8c5be1e5ebec7d5bd14f71427d1e84f3dd0314c0f7b2291e5b200ac8c7c3b925",
            "0x0000000000000000000000005e29dd90997cad3816ff08c2de085d4dad93e757",
            "0x000000000000000000000000f678f3df67ebea04b3a0c1c2636eec2504c92ba2"
          ],
          "data": "0x0000000000000000000000000000000000000000000000000000000000000000",
          "blockHash": "0xc59f55ad0267f9cae3f46215aa3d81f22474e00e688ba894686a36aa501948c8",
          "blockNumber": "0x52a773",
          "transactionHash": "0xbfec486dfaeec8d9be5010ae91b95f398f51a16aea09141d97b4eba30bce0156",
          "transactionIndex": "0x17",
          "logIndex": "0x28",
          "removed": false
        },
        {
          "address": "0x4F5e836680b9aac98dFA2af775D29Bdd8C68cB91",
          "topics": [
            "0xddf252ad1be2c89b69c2b068fc378daa952ba7f163c4a11628f55a4df523b3ef",
            "0x0000000000000000000000005e29dd90997cad3816ff08c2de085d4dad93e757",
            "0x00000000000000000000000028b0949cee77b88dd3093d8b90f0445cc7f5bd6b"
          ],
          "data": "0x0000000000000000000000000000000000000000000000000000000001312d00",
          "blockHash": "0xc59f55ad0267f9cae3f46215aa3d81f22474e00e688ba894686a36aa501948c8",
          "blockNumber": "0x52a773",
          "transactionHash": "0xbfec486dfaeec8d9be5010ae91b95f398f51a16aea09141d97b4eba30bce0156",
          "transactionIndex": "0x17",
          "logIndex": "0x29",
          "removed": false
        },
        {
          "address": "0xb3f2f6Ed18514F55a2963C78fc2C23cB1FBd8806",
          "topics": [
            "0x8c5be1e5ebec7d5bd14f71427d1e84f3dd0314c0f7b2291e5b200ac8c7c3b925",
            "0x0000000000000000000000005e29dd90997cad3816ff08c2de085d4dad93e757",
            "0x000000000000000000000000f678f3df67ebea04b3a0c1c2636eec2504c92ba2"
          ],
          "data": "0x0000000000000000000000000000000000000000000000000000000000000000",
          "blockHash": "0xc59f55ad0267f9cae3f46215aa3d81f22474e00e688ba894686a36aa501948c8",
          "blockNumber": "0x52a773",
          "transactionHash": "0xbfec486dfaeec8d9be5010ae91b95f398f51a16aea09141d97b4eba30bce0156",
          "transactionIndex": "0x17",
          "logIndex": "0x2a",
          "removed": false
        },
        {
          "address": "0xb3f2f6Ed18514F55a2963C78fc2C23cB1FBd8806",
          "topics": [
            "0xddf252ad1be2c89b69c2b068fc378daa952ba7f163c4a11628f55a4df523b3ef",
            "0x0000000000000000000000005e29dd90997cad3816ff08c2de085d4dad93e757",
            "0x00000000000000000000000028b0949cee77b88dd3093d8b90f0445cc7f5bd6b"
          ],
          "data": "0x000000000000000000000000000000000000000000000000002386f26fc10000",
          "blockHash": "0xc59f55ad0267f9cae3f46215aa3d81f22474e00e688ba894686a36aa501948c8",
          "blockNumber": "0x52a773",
          "transactionHash": "0xbfec486dfaeec8d9be5010ae91b95f398f51a16aea09141d97b4eba30bce0156",
          "transactionIndex": "0x17",
          "logIndex": "0x2b",
          "removed": false
        },
        {
          "address": "0x28b0949cEe77b88Dd3093D8b90F0445Cc7f5bD6b",
          "topics": ["0x5b479c5a76f3eddfff87849b354aee2a3fbdafd3c2c1a95561143bd2ec1f1e64"],
          "data": "0x0000000000000000000000000000000000000000000000000000000001312d00000000000000000000000000000000000000000000000000002386f26fc10000",
          "blockHash": "0xc59f55ad0267f9cae3f46215aa3d81f22474e00e688ba894686a36aa501948c8",
          "blockNumber": "0x52a773",
          "transactionHash": "0xbfec486dfaeec8d9be5010ae91b95f398f51a16aea09141d97b4eba30bce0156",
          "transactionIndex": "0x17",
          "logIndex": "0x2c",
          "removed": false
        },
        {
          "address": "0xf678F3DF67EBea04b3a0c1C2636eEc2504c92BA2",
          "topics": ["0xf6fb7b9b835c077917267172dcabe98caab0f1ad2cede08ca28901646ed46d11"],
          "data": "0x0000000000000000000000000000000000000000000000000000000578168738",
          "blockHash": "0xc59f55ad0267f9cae3f46215aa3d81f22474e00e688ba894686a36aa501948c8",
          "blockNumber": "0x52a773",
          "transactionHash": "0xbfec486dfaeec8d9be5010ae91b95f398f51a16aea09141d97b4eba30bce0156",
          "transactionIndex": "0x17",
          "logIndex": "0x2d",
          "removed": false
        },
        {
          "address": "0x5E29dD90997caD3816FF08C2dE085D4DaD93e757",
          "topics": ["0x4b2bcb0ca50531683faa51870e1018aa0d7272c7f2acc5399389b0c0493865d9"],
          "data": "0x000000000000000000000000a52a878ce46f233794fee5c976eb2528e17510d700000000000000000000000000000000000000000000000000000000000027100000000000000000000000000000000000000000000000000000000001312d00000000000000000000000000000000000000000000000000002386f26fc10000",
          "blockHash": "0xc59f55ad0267f9cae3f46215aa3d81f22474e00e688ba894686a36aa501948c8",
          "blockNumber": "0x52a773",
          "transactionHash": "0xbfec486dfaeec8d9be5010ae91b95f398f51a16aea09141d97b4eba30bce0156",
          "transactionIndex": "0x17",
          "logIndex": "0x2e",
          "removed": false
        },
        {
          "address": "0x376e46d54AabfEd100aD1F4E252fe801bFdeC092",
          "topics": ["0xb95558c5fa26a0093cddc7ad7eb438c0475c3d69925f02e8787c72661472ad90"],
          "data": "0x000000000000000000000000000000000000000000000000002386f26fc10000000000000000000000000000a52a878ce46f233794fee5c976eb2528e17510d70000000000000000000000000000000000000000000000000000000001312d00000000000000000000000000000000000000000000000000002386f26fc10000",
          "blockHash": "0xc59f55ad0267f9cae3f46215aa3d81f22474e00e688ba894686a36aa501948c8",
          "blockNumber": "0x52a773",
          "transactionHash": "0xbfec486dfaeec8d9be5010ae91b95f398f51a16aea09141d97b4eba30bce0156",
          "transactionIndex": "0x17",
          "logIndex": "0x2f",
          "removed": false
        }
      ],
      "status": "0x1",
      "logsBloom": "0x00000010000000000000000000000010000000002800000000100400000000000000000000000000000000000004001001000000000008000040000000200040000000000000020021000008000020000000000000000000000000080000000000000000020000020000000000000800000000000000020000800010000000000000000000000000000020000002000000000000000000000000000000000010020000000008040000000000000000000000000000400000010040000008000002000012000000000000000000000000800000000000000000004000000060000010000000000000000000000000000001200000100100000000008000000000",
      "type": "0x2",
      "effectiveGasPrice": "0xb9796e0d"
    }
  ],
  "libraries": [],
  "pending": [],
  "returns": {},
  "timestamp": 1709581710,
  "chain": 11155111,
  "multi": false,
  "commit": "dcbc4d6"
}
