{
  "transactions": [
    {
      "hash": "0x1dd8538e11b32960c433d4d1cec784f852f821fc35534f7cc5576632ea966e67",
      "transactionType": "CALL",
      "contractName": null,
      "contractAddress": "0xf4FA490F4600a57A7E0d73dA0aA96cB9c1B6f7A6",
      "function": "updateAnswer(int256)",
      "arguments": ["230000000000000000000000"],
      "transaction": {
        "type": "0x02",
        "from": "0xa52a878ce46f233794fee5c976eb2528e17510d7",
        "to": "0xf4fa490f4600a57a7e0d73da0aa96cb9c1b6f7a6",
        "gas": "0x2719e",
        "value": "0x0",
        "data": "0xa87a20ce0000000000000000000000000000000000000000000030b453321fc603c00000",
        "nonce": "0xa4",
        "accessList": []
      },
      "additionalContracts": [],
      "isFixedGasLimit": false
    },
    {
      "hash": "0x196f06f625302e7d15a63db6e5482209df2fba002024ebc97c73f2b8133781ea",
      "transactionType": "CALL",
      "contractName": null,
      "contractAddress": "0xaAC8EAc22df7eF4350B6cB4453Af07f33210D888",
      "function": "updateAnswer(int256)",
      "arguments": ["100000000"],
      "transaction": {
        "type": "0x02",
        "from": "0xa52a878ce46f233794fee5c976eb2528e17510d7",
        "to": "0xaac8eac22df7ef4350b6cb4453af07f33210d888",
        "gas": "0x2714b",
        "value": "0x0",
        "data": "0xa87a20ce0000000000000000000000000000000000000000000000000000000005f5e100",
        "nonce": "0xa5",
        "accessList": []
      },
      "additionalContracts": [],
      "isFixedGasLimit": false
    },
    {
      "hash": "0x01682ca702a4daa1c0b516cc8d89a42f2e9b09c43ab1f2f9aae00975d2892b9f",
      "transactionType": "CALL",
      "contractName": null,
      "contractAddress": "0x4F5e836680b9aac98dFA2af775D29Bdd8C68cB91",
      "function": "mint(address,uint256)",
      "arguments": ["0xA52A878CE46F233794FeE5c976eb2528e17510d7", "10000000000000000000000000000000000000000"],
      "transaction": {
        "type": "0x02",
        "from": "0xa52a878ce46f233794fee5c976eb2528e17510d7",
        "to": "0x4f5e836680b9aac98dfa2af775d29bdd8c68cb91",
        "gas": "0x11439",
        "value": "0x0",
        "data": "0x40c10f19000000000000000000000000a52a878ce46f233794fee5c976eb2528e17510d70000000000000000000000000000001d6329f1c35ca4bfabb9f5610000000000",
        "nonce": "0xa6",
        "accessList": []
      },
      "additionalContracts": [],
      "isFixedGasLimit": false
    },
    {
      "hash": "0x3670ab9135c5c1a4bbf8869a4867d3448d539e8a6da7cb8a09d2479048f40568",
      "transactionType": "CALL",
      "contractName": null,
      "contractAddress": "0xb3f2f6Ed18514F55a2963C78fc2C23cB1FBd8806",
      "function": "mint(address,uint256)",
      "arguments": ["0xA52A878CE46F233794FeE5c976eb2528e17510d7", "10000000000000000000000000000000000000000"],
      "transaction": {
        "type": "0x02",
        "from": "0xa52a878ce46f233794fee5c976eb2528e17510d7",
        "to": "0xb3f2f6ed18514f55a2963c78fc2c23cb1fbd8806",
        "gas": "0xb7f7",
        "value": "0x0",
        "data": "0x40c10f19000000000000000000000000a52a878ce46f233794fee5c976eb2528e17510d70000000000000000000000000000001d6329f1c35ca4bfabb9f5610000000000",
        "nonce": "0xa7",
        "accessList": []
      },
      "additionalContracts": [],
      "isFixedGasLimit": false
    },
    {
      "hash": "0x6125cc53e909490520039ebd234625f9a5a2acb0ff00ab4f76c99cd59eafe7d8",
      "transactionType": "CALL",
      "contractName": null,
      "contractAddress": "0x4F5e836680b9aac98dFA2af775D29Bdd8C68cB91",
      "function": "approve(address,uint256)",
      "arguments": ["0x5E29dD90997caD3816FF08C2dE085D4DaD93e757", "10000000000000000000000000000000000000000"],
      "transaction": {
        "type": "0x02",
        "from": "0xa52a878ce46f233794fee5c976eb2528e17510d7",
        "to": "0x4f5e836680b9aac98dfa2af775d29bdd8c68cb91",
        "gas": "0x8e7a",
        "value": "0x0",
        "data": "0x095ea7b30000000000000000000000005e29dd90997cad3816ff08c2de085d4dad93e7570000000000000000000000000000001d6329f1c35ca4bfabb9f5610000000000",
        "nonce": "0xa8",
        "accessList": []
      },
      "additionalContracts": [],
      "isFixedGasLimit": false
    },
    {
      "hash": "0x66c8f4c1865fed72121507d0959bb81926997cbfafa0c4e83f7d04783ea08310",
      "transactionType": "CALL",
      "contractName": null,
      "contractAddress": "0xb3f2f6Ed18514F55a2963C78fc2C23cB1FBd8806",
      "function": "approve(address,uint256)",
      "arguments": ["0x5E29dD90997caD3816FF08C2dE085D4DaD93e757", "10000000000000000000000000000000000000000"],
      "transaction": {
        "type": "0x02",
        "from": "0xa52a878ce46f233794fee5c976eb2528e17510d7",
        "to": "0xb3f2f6ed18514f55a2963c78fc2c23cb1fbd8806",
        "gas": "0x8e7a",
        "value": "0x0",
        "data": "0x095ea7b30000000000000000000000005e29dd90997cad3816ff08c2de085d4dad93e7570000000000000000000000000000001d6329f1c35ca4bfabb9f5610000000000",
        "nonce": "0xa9",
        "accessList": []
      },
      "additionalContracts": [],
      "isFixedGasLimit": false
    }
  ],
  "receipts": [
    {
      "transactionHash": "0x1dd8538e11b32960c433d4d1cec784f852f821fc35534f7cc5576632ea966e67",
      "transactionIndex": "0x14",
      "blockHash": "0x529aabf2ed3e69703615a3d29ab389d3fae9fa41775e2b93769907401f634da2",
      "blockNumber": "0x52a76b",
      "from": "0xA52A878CE46F233794FeE5c976eb2528e17510d7",
      "to": "0xf4FA490F4600a57A7E0d73dA0aA96cB9c1B6f7A6",
      "cumulativeGasUsed": "0x11414b",
      "gasUsed": "0x1c4f0",
      "contractAddress": null,
      "logs": [],
      "status": "0x1",
      "logsBloom": "0x00000000000000000000000000000000000000000000000000000000000000000000000000000000000000000000000000000000000000000000000000000000000000000000000000000000000000000000000000000000000000000000000000000000000000000000000000000000000000000000000000000000000000000000000000000000000000000000000000000000000000000000000000000000000000000000000000000000000000000000000000000000000000000000000000000000000000000000000000000000000000000000000000000000000000000000000000000000000000000000000000000000000000000000000000000000",
      "type": "0x2",
      "effectiveGasPrice": "0xbb5e557f"
    },
    {
      "transactionHash": "0x196f06f625302e7d15a63db6e5482209df2fba002024ebc97c73f2b8133781ea",
      "transactionIndex": "0x15",
      "blockHash": "0x529aabf2ed3e69703615a3d29ab389d3fae9fa41775e2b93769907401f634da2",
      "blockNumber": "0x52a76b",
      "from": "0xA52A878CE46F233794FeE5c976eb2528e17510d7",
      "to": "0xaAC8EAc22df7eF4350B6cB4453Af07f33210D888",
      "cumulativeGasUsed": "0x1305ff",
      "gasUsed": "0x1c4b4",
      "contractAddress": null,
      "logs": [],
      "status": "0x1",
      "logsBloom": "0x00000000000000000000000000000000000000000000000000000000000000000000000000000000000000000000000000000000000000000000000000000000000000000000000000000000000000000000000000000000000000000000000000000000000000000000000000000000000000000000000000000000000000000000000000000000000000000000000000000000000000000000000000000000000000000000000000000000000000000000000000000000000000000000000000000000000000000000000000000000000000000000000000000000000000000000000000000000000000000000000000000000000000000000000000000000",
      "type": "0x2",
      "effectiveGasPrice": "0xbb5e557f"
    },
    {
      "transactionHash": "0x01682ca702a4daa1c0b516cc8d89a42f2e9b09c43ab1f2f9aae00975d2892b9f",
      "transactionIndex": "0x16",
      "blockHash": "0x529aabf2ed3e69703615a3d29ab389d3fae9fa41775e2b93769907401f634da2",
      "blockNumber": "0x52a76b",
      "from": "0xA52A878CE46F233794FeE5c976eb2528e17510d7",
      "to": "0x4F5e836680b9aac98dFA2af775D29Bdd8C68cB91",
      "cumulativeGasUsed": "0x13cdfb",
      "gasUsed": "0xc7fc",
      "contractAddress": null,
      "logs": [
        {
          "address": "0x4F5e836680b9aac98dFA2af775D29Bdd8C68cB91",
          "topics": [
            "0xddf252ad1be2c89b69c2b068fc378daa952ba7f163c4a11628f55a4df523b3ef",
            "0x0000000000000000000000000000000000000000000000000000000000000000",
            "0x000000000000000000000000a52a878ce46f233794fee5c976eb2528e17510d7"
          ],
          "data": "0x0000000000000000000000000000001d6329f1c35ca4bfabb9f5610000000000",
          "blockHash": "0x529aabf2ed3e69703615a3d29ab389d3fae9fa41775e2b93769907401f634da2",
          "blockNumber": "0x52a76b",
          "transactionHash": "0x01682ca702a4daa1c0b516cc8d89a42f2e9b09c43ab1f2f9aae00975d2892b9f",
          "transactionIndex": "0x16",
          "logIndex": "0x9",
          "removed": false
        }
      ],
      "status": "0x1",
      "logsBloom": "0x00000000000000000000000000000000000000000000000000000000000000000000000000000000000000000000000000000000000000000000000000000000000000000000000001000008000000000000000000000000000000000000000000000000020000000000000000000800000000000000000000000010000000000000000000000000000000000000000000000000000000000000000000000000000000000000000000000000000000000000000000400000000000000000000000000002000000000000000000000000000000000000000000004000000020000000000000000000000000000000000001200000000000000000008000000000",
      "type": "0x2",
      "effectiveGasPrice": "0xbb5e557f"
    },
    {
      "transactionHash": "0x3670ab9135c5c1a4bbf8869a4867d3448d539e8a6da7cb8a09d2479048f40568",
      "transactionIndex": "0x16",
      "blockHash": "0x86b4e932436c78764fbeb8997760b0e9f5b38514f7fd2ab54ffbe1e22e7e7809",
      "blockNumber": "0x52a76c",
      "from": "0xA52A878CE46F233794FeE5c976eb2528e17510d7",
      "to": "0xb3f2f6Ed18514F55a2963C78fc2C23cB1FBd8806",
      "cumulativeGasUsed": "0xbb84c",
      "gasUsed": "0x8530",
      "contractAddress": null,
      "logs": [
        {
          "address": "0xb3f2f6Ed18514F55a2963C78fc2C23cB1FBd8806",
          "topics": [
            "0xddf252ad1be2c89b69c2b068fc378daa952ba7f163c4a11628f55a4df523b3ef",
            "0x0000000000000000000000000000000000000000000000000000000000000000",
            "0x000000000000000000000000a52a878ce46f233794fee5c976eb2528e17510d7"
          ],
          "data": "0x0000000000000000000000000000001d6329f1c35ca4bfabb9f5610000000000",
          "blockHash": "0x86b4e932436c78764fbeb8997760b0e9f5b38514f7fd2ab54ffbe1e22e7e7809",
          "blockNumber": "0x52a76c",
          "transactionHash": "0x3670ab9135c5c1a4bbf8869a4867d3448d539e8a6da7cb8a09d2479048f40568",
          "transactionIndex": "0x16",
          "logIndex": "0x9",
          "removed": false
        }
      ],
      "status": "0x1",
      "logsBloom": "0x00000000000000000000000000000000000000002000000000100000000000000000000000000000000000000000000000000000000000000000000000000000000000000000000001000008000000000000000000000000000000000000000000000000020000000000000000000800000000000000000000000010000000000000000000000000000000000000000000000000000000000000000000000000000000000000000000000000000000000000000000000000010000000000000000000002000000000000000000000000000000000000000000004000000020000000000000000000000000000000000000000000000000000000008000000000",
      "type": "0x2",
      "effectiveGasPrice": "0xbad0ae1d"
    },
    {
      "transactionHash": "0x6125cc53e909490520039ebd234625f9a5a2acb0ff00ab4f76c99cd59eafe7d8",
      "transactionIndex": "0x17",
      "blockHash": "0x86b4e932436c78764fbeb8997760b0e9f5b38514f7fd2ab54ffbe1e22e7e7809",
      "blockNumber": "0x52a76c",
      "from": "0xA52A878CE46F233794FeE5c976eb2528e17510d7",
      "to": "0x4F5e836680b9aac98dFA2af775D29Bdd8C68cB91",
      "cumulativeGasUsed": "0xc1f73",
      "gasUsed": "0x6727",
      "contractAddress": null,
      "logs": [
        {
          "address": "0x4F5e836680b9aac98dFA2af775D29Bdd8C68cB91",
          "topics": [
            "0x8c5be1e5ebec7d5bd14f71427d1e84f3dd0314c0f7b2291e5b200ac8c7c3b925",
            "0x000000000000000000000000a52a878ce46f233794fee5c976eb2528e17510d7",
            "0x0000000000000000000000005e29dd90997cad3816ff08c2de085d4dad93e757"
          ],
          "data": "0x0000000000000000000000000000001d6329f1c35ca4bfabb9f5610000000000",
          "blockHash": "0x86b4e932436c78764fbeb8997760b0e9f5b38514f7fd2ab54ffbe1e22e7e7809",
          "blockNumber": "0x52a76c",
          "transactionHash": "0x6125cc53e909490520039ebd234625f9a5a2acb0ff00ab4f76c99cd59eafe7d8",
          "transactionIndex": "0x17",
          "logIndex": "0xa",
          "removed": false
        }
      ],
      "status": "0x1",
      "logsBloom": "0x00000000000000000000000000000000000000000000000000000400000000000000000000000000000000000000000000000000000000000000000000200000000000000000000001000000000000000000000000000000000000000000000000000000000000000000000000000000000000000000000000000000000000000000000000000000000000000000000000000000000000000000000000000000020000000000000000000000000000000000000000400000000000000000000000000000000000000000000000000000800000000000000000004000000000000010000000000000000000000000000001200000000100000000008000000000",
      "type": "0x2",
      "effectiveGasPrice": "0xbad0ae1d"
    },
    {
      "transactionHash": "0x66c8f4c1865fed72121507d0959bb81926997cbfafa0c4e83f7d04783ea08310",
      "transactionIndex": "0x18",
      "blockHash": "0x86b4e932436c78764fbeb8997760b0e9f5b38514f7fd2ab54ffbe1e22e7e7809",
      "blockNumber": "0x52a76c",
      "from": "0xA52A878CE46F233794FeE5c976eb2528e17510d7",
      "to": "0xb3f2f6Ed18514F55a2963C78fc2C23cB1FBd8806",
      "cumulativeGasUsed": "0xc869a",
      "gasUsed": "0x6727",
      "contractAddress": null,
      "logs": [
        {
          "address": "0xb3f2f6Ed18514F55a2963C78fc2C23cB1FBd8806",
          "topics": [
            "0x8c5be1e5ebec7d5bd14f71427d1e84f3dd0314c0f7b2291e5b200ac8c7c3b925",
            "0x000000000000000000000000a52a878ce46f233794fee5c976eb2528e17510d7",
            "0x0000000000000000000000005e29dd90997cad3816ff08c2de085d4dad93e757"
          ],
          "data": "0x0000000000000000000000000000001d6329f1c35ca4bfabb9f5610000000000",
          "blockHash": "0x86b4e932436c78764fbeb8997760b0e9f5b38514f7fd2ab54ffbe1e22e7e7809",
          "blockNumber": "0x52a76c",
          "transactionHash": "0x66c8f4c1865fed72121507d0959bb81926997cbfafa0c4e83f7d04783ea08310",
          "transactionIndex": "0x18",
          "logIndex": "0xb",
          "removed": false
        }
      ],
      "status": "0x1",
      "logsBloom": "0x00000000000000000000000000000000000000002000000000100400000000000000000000000000000000000000000000000000000000000000000000200000000000000000000001000000000000000000000000000000000000000000000000000000000000000000000000000000000000000000000000000000000000000000000000000000000000000000000000000000000000000000000000000000020000000000000000000000000000000000000000000000010000000000000000000000000000000000000000000000800000000000000000004000000000000010000000000000000000000000000000000000000100000000008000000000",
      "type": "0x2",
      "effectiveGasPrice": "0xbad0ae1d"
    }
  ],
  "libraries": [],
  "pending": [],
  "returns": {},
  "timestamp": 1709581628,
  "chain": 11155111,
  "multi": false,
  "commit": "dcbc4d6"
}
