{
  "transactions": [
    {
      "hash": "0x22bd42ff65fff8e8d1455c903ee036572f1a1a6ac3b9dfa464bcce41cfe049bb",
      "transactionType": "CALL",
      "contractName": null,
      "contractAddress": "0x8Cb689ABDB29381A9ABeE33889601d90D528A47a",
      "function": "setPoolManager(address)",
      "arguments": ["0xB91a7F0b9b27E3D59F3058D1508A340B1aF27DbB"],
      "transaction": {
        "type": "0x02",
        "from": "0xa52a878ce46f233794fee5c976eb2528e17510d7",
        "to": "0x8cb689abdb29381a9abee33889601d90d528a47a",
        "gas": "0xa493",
        "value": "0x0",
        "data": "0x7aef6715000000000000000000000000b91a7f0b9b27e3d59f3058d1508a340b1af27dbb",
        "nonce": "0x91",
        "accessList": []
      },
      "additionalContracts": [],
      "isFixedGasLimit": false
    }
  ],
  "receipts": [],
  "libraries": [],
  "pending": ["0x22bd42ff65fff8e8d1455c903ee036572f1a1a6ac3b9dfa464bcce41cfe049bb"],
  "returns": {},
  "timestamp": 1709397957,
  "chain": 11155111,
  "multi": false,
  "commit": "c67dcd4"
}
