{
  "transactions": [
    {
      "hash": "0x22bd42ff65fff8e8d1455c903ee036572f1a1a6ac3b9dfa464bcce41cfe049bb",
      "transactionType": "CALL",
      "contractName": null,
      "contractAddress": "0x8Cb689ABDB29381A9ABeE33889601d90D528A47a",
      "function": "setPoolManager(address)",
      "arguments": ["0xB91a7F0b9b27E3D59F3058D1508A340B1aF27DbB"],
      "transaction": {
        "type": "0x02",
        "from": "0xa52a878ce46f233794fee5c976eb2528e17510d7",
        "to": "0x8cb689abdb29381a9abee33889601d90d528a47a",
        "gas": "0xa493",
        "value": "0x0",
        "data": "0x7aef6715000000000000000000000000b91a7f0b9b27e3d59f3058d1508a340b1af27dbb",
        "nonce": "0x91",
        "accessList": []
      },
      "additionalContracts": [],
      "isFixedGasLimit": false
    }
  ],
  "receipts": [
    {
      "transactionHash": "0x22bd42ff65fff8e8d1455c903ee036572f1a1a6ac3b9dfa464bcce41cfe049bb",
      "transactionIndex": "0x16",
      "blockHash": "0xeb3f0d2e08cd93f3b430ba2784ca83e4d0938a9929da3e539094cfa2a181b6fc",
      "blockNumber": "0x526ed5",
      "from": "0xA52A878CE46F233794FeE5c976eb2528e17510d7",
      "to": "0x8Cb689ABDB29381A9ABeE33889601d90D528A47a",
      "cumulativeGasUsed": "0xa01ef",
      "gasUsed": "0x7727",
      "contractAddress": null,
      "logs": [
        {
          "address": "0x8Cb689ABDB29381A9ABeE33889601d90D528A47a",
          "topics": ["0x181b126158932b45e642aeb48f81b946563bf584a35e78d6a25b013c8d41ff8f"],
          "data": "0x000000000000000000000000b91a7f0b9b27e3d59f3058d1508a340b1af27dbb",
          "blockHash": "0xeb3f0d2e08cd93f3b430ba2784ca83e4d0938a9929da3e539094cfa2a181b6fc",
          "blockNumber": "0x526ed5",
          "transactionHash": "0x22bd42ff65fff8e8d1455c903ee036572f1a1a6ac3b9dfa464bcce41cfe049bb",
          "transactionIndex": "0x16",
          "logIndex": "0x2",
          "removed": false
        }
      ],
      "status": "0x1",
      "logsBloom": "0x00000000000000000000000000000000000200000000000000000000000000000000000000000000000000000000000000000000000000000000000000000000000000000000000000000000000000000000000000000000000000000000000000000000000000000004000000000000000000000000000000000000000000000000000000000000000000000000000000000000000000000000000000000000000000000000000000000000000000000000000000000000000000200000000000000000000000000000000000000000000000000000000000000000000000000000000010000000000000001000000000000000000000000000000200000000",
      "type": "0x2",
      "effectiveGasPrice": "0xbc71823a"
    }
  ],
  "libraries": [],
  "pending": [],
  "returns": {},
  "timestamp": 1709397964,
  "chain": 11155111,
  "multi": false,
  "commit": "c67dcd4"
}
