{
  "transactions": [
    {
      "hash": "0x6b3bf687ea6d8d1ede5e4b2b6e22d664a8763e53704065d589edabdaf64576e7",
      "transactionType": "CALL",
      "contractName": null,
      "contractAddress": "0x28b0949cEe77b88Dd3093D8b90F0445Cc7f5bD6b",
      "function": "setPoolManager(address)",
      "arguments": ["0x5E29dD90997caD3816FF08C2dE085D4DaD93e757"],
      "transaction": {
        "type": "0x02",
        "from": "0xa52a878ce46f233794fee5c976eb2528e17510d7",
        "to": "0x28b0949cee77b88dd3093d8b90f0445cc7f5bd6b",
        "gas": "0xa493",
        "value": "0x0",
        "data": "0x7aef67150000000000000000000000005e29dd90997cad3816ff08c2de085d4dad93e757",
        "nonce": "0x92",
        "accessList": []
      },
      "additionalContracts": [],
      "isFixedGasLimit": false
    }
  ],
  "receipts": [
    {
      "transactionHash": "0x6b3bf687ea6d8d1ede5e4b2b6e22d664a8763e53704065d589edabdaf64576e7",
      "transactionIndex": "0x13",
      "blockHash": "0x9fdf8a37bda6d01443c438046e73ba45f6cc1bb14a87dd0a1c5071139d671555",
      "blockNumber": "0x526ed8",
      "from": "0xA52A878CE46F233794FeE5c976eb2528e17510d7",
      "to": "0x28b0949cEe77b88Dd3093D8b90F0445Cc7f5bD6b",
      "cumulativeGasUsed": "0x156948",
      "gasUsed": "0x7727",
      "contractAddress": null,
      "logs": [
        {
          "address": "0x28b0949cEe77b88Dd3093D8b90F0445Cc7f5bD6b",
          "topics": ["0x181b126158932b45e642aeb48f81b946563bf584a35e78d6a25b013c8d41ff8f"],
          "data": "0x0000000000000000000000005e29dd90997cad3816ff08c2de085d4dad93e757",
          "blockHash": "0x9fdf8a37bda6d01443c438046e73ba45f6cc1bb14a87dd0a1c5071139d671555",
          "blockNumber": "0x526ed8",
          "transactionHash": "0x6b3bf687ea6d8d1ede5e4b2b6e22d664a8763e53704065d589edabdaf64576e7",
          "transactionIndex": "0x13",
          "logIndex": "0x6",
          "removed": false
        }
      ],
      "status": "0x1",
      "logsBloom": "0x00000000000000000000000000000000000200000000000000000000000000000000000000000000000000000000000000000000000000000000000000000000000000000000000000000000000000000000000000000000000000080000000000000000000000000000000000000000000000000000000000800000000000000000000000000000000000000002000000000000000000000000000000000000000000000000000000000000000000000000000000000000000000000000000000000000000000000000000000000000000000000000000000000000000000000000000010000000000000000000000000000000000000000000000200000000",
      "type": "0x2",
      "effectiveGasPrice": "0xbb72e734"
    }
  ],
  "libraries": [],
  "pending": [],
  "returns": {},
  "timestamp": 1709398013,
  "chain": 11155111,
  "multi": false,
  "commit": "c67dcd4"
}
