{
  "transactions": [
    {
      "hash": "0x6b3bf687ea6d8d1ede5e4b2b6e22d664a8763e53704065d589edabdaf64576e7",
      "transactionType": "CALL",
      "contractName": null,
      "contractAddress": "0x28b0949cEe77b88Dd3093D8b90F0445Cc7f5bD6b",
      "function": "setPoolManager(address)",
      "arguments": ["0x5E29dD90997caD3816FF08C2dE085D4DaD93e757"],
      "transaction": {
        "type": "0x02",
        "from": "0xa52a878ce46f233794fee5c976eb2528e17510d7",
        "to": "0x28b0949cee77b88dd3093d8b90f0445cc7f5bd6b",
        "gas": "0xa493",
        "value": "0x0",
        "data": "0x7aef67150000000000000000000000005e29dd90997cad3816ff08c2de085d4dad93e757",
        "nonce": "0x92",
        "accessList": []
      },
      "additionalContracts": [],
      "isFixedGasLimit": false
    }
  ],
  "receipts": [],
  "libraries": [],
  "pending": ["0x6b3bf687ea6d8d1ede5e4b2b6e22d664a8763e53704065d589edabdaf64576e7"],
  "returns": {},
  "timestamp": 1709398000,
  "chain": 11155111,
  "multi": false,
  "commit": "c67dcd4"
}
