{
  "transactions": [
    {
      "hash": "0x7cd48bd9e272225944bca49609eea8309446737dae89d84210701a3c578d53e6",
      "transactionType": "CALL",
      "contractName": "MockToken",
      "contractAddress": "0x4F5e836680b9aac98dFA2af775D29Bdd8C68cB91",
      "function": "approve(address,uint256)",
      "arguments": [
        "0x28b0949cEe77b88Dd3093D8b90F0445Cc7f5bD6b",
        "115792089237316195423570985008687907853269984665640564039457584007913129639935"
      ],
      "transaction": {
        "type": "0x02",
        "from": "0xa52a878ce46f233794fee5c976eb2528e17510d7",
        "to": "0x4f5e836680b9aac98dfa2af775d29bdd8c68cb91",
        "gas": "0x109ea",
        "value": "0x0",
        "data": "0x095ea7b300000000000000000000000028b0949cee77b88dd3093d8b90f0445cc7f5bd6bffffffffffffffffffffffffffffffffffffffffffffffffffffffffffffffff",
        "nonce": "0xba",
        "accessList": []
      },
      "additionalContracts": [],
      "isFixedGasLimit": false
    },
    {
      "hash": "0xd31347b54e2df4f8d5c9c15e940f8f0ac93d0a3794801a7d21e7652b35b203bf",
      "transactionType": "CALL",
      "contractName": "MockToken",
      "contractAddress": "0xb3f2f6Ed18514F55a2963C78fc2C23cB1FBd8806",
      "function": "approve(address,uint256)",
      "arguments": [
        "0x28b0949cEe77b88Dd3093D8b90F0445Cc7f5bD6b",
        "115792089237316195423570985008687907853269984665640564039457584007913129639935"
      ],
      "transaction": {
        "type": "0x02",
        "from": "0xa52a878ce46f233794fee5c976eb2528e17510d7",
        "to": "0xb3f2f6ed18514f55a2963c78fc2c23cb1fbd8806",
        "gas": "0x109ea",
        "value": "0x0",
        "data": "0x095ea7b300000000000000000000000028b0949cee77b88dd3093d8b90f0445cc7f5bd6bffffffffffffffffffffffffffffffffffffffffffffffffffffffffffffffff",
        "nonce": "0xbb",
        "accessList": []
      },
      "additionalContracts": [],
      "isFixedGasLimit": false
    },
    {
      "hash": "0x732958d10edaf414e6dd78e9316d715d2b3d8c6f996aa1d3c92445fda5e37ff6",
      "transactionType": "CALL",
      "contractName": "SOT",
      "contractAddress": "0xf678F3DF67EBea04b3a0c1C2636eEc2504c92BA2",
      "function": "setMaxTokenVolumes(uint256,uint256)",
      "arguments": ["100000000000000000000", "20000000000"],
      "transaction": {
        "type": "0x02",
        "from": "0xa52a878ce46f233794fee5c976eb2528e17510d7",
        "to": "0xf678f3df67ebea04b3a0c1c2636eec2504c92ba2",
        "gas": "0x176e8",
        "value": "0x0",
        "data": "0x21444ec90000000000000000000000000000000000000000000000056bc75e2d6310000000000000000000000000000000000000000000000000000000000004a817c800",
        "nonce": "0xbc",
        "accessList": []
      },
      "additionalContracts": [],
      "isFixedGasLimit": false
    },
    {
      "hash": "0x346890a778ec4614441b39a24c075f996463a79d778f1016bfceb1b8db1adf0b",
      "transactionType": "CALL",
      "contractName": "SOT",
      "contractAddress": "0xf678F3DF67EBea04b3a0c1C2636eEc2504c92BA2",
      "function": "setMaxAllowedQuotes(uint8)",
      "arguments": ["3"],
      "transaction": {
        "type": "0x02",
        "from": "0xa52a878ce46f233794fee5c976eb2528e17510d7",
        "to": "0xf678f3df67ebea04b3a0c1c2636eec2504c92ba2",
        "gas": "0xaac0",
        "value": "0x0",
        "data": "0x0cf9a2320000000000000000000000000000000000000000000000000000000000000003",
        "nonce": "0xbd",
        "accessList": []
      },
      "additionalContracts": [],
      "isFixedGasLimit": false
    },
    {
      "hash": "0x854c2ec30065fae692e6f3919fb61100ea2371f749caca0a0dfc1c5906462376",
      "transactionType": "CALL",
      "contractName": "SOT",
      "contractAddress": "0xf678F3DF67EBea04b3a0c1C2636eEc2504c92BA2",
      "function": "setMaxOracleDeviationBips(uint16)",
      "arguments": ["50"],
      "transaction": {
        "type": "0x02",
        "from": "0xa52a878ce46f233794fee5c976eb2528e17510d7",
        "to": "0xf678f3df67ebea04b3a0c1c2636eec2504c92ba2",
        "gas": "0x9ad8",
        "value": "0x0",
        "data": "0x89dce7c10000000000000000000000000000000000000000000000000000000000000032",
        "nonce": "0xbe",
        "accessList": []
      },
      "additionalContracts": [],
      "isFixedGasLimit": false
    },
    {
      "hash": "0xa3d5d49a31df5100e2e8bafa693a28e42ad16e27b973bf08b9fc6f68ae70bab4",
      "transactionType": "CALL",
      "contractName": "MockChainlinkOracle",
      "contractAddress": "0xf4FA490F4600a57A7E0d73dA0aA96cB9c1B6f7A6",
      "function": "updateAnswer(int256)",
      "arguments": ["229900000000000000000000"],
      "transaction": {
        "type": "0x02",
        "from": "0xa52a878ce46f233794fee5c976eb2528e17510d7",
        "to": "0xf4fa490f4600a57a7e0d73da0aa96cb9c1b6f7a6",
        "gas": "0x2719e",
        "value": "0x0",
        "data": "0xa87a20ce0000000000000000000000000000000000000000000030aee76ac198a0b00000",
        "nonce": "0xbf",
        "accessList": []
      },
      "additionalContracts": [],
      "isFixedGasLimit": false
    },
    {
      "hash": "0xb1195a889904cf85abf53371e3a4a08fba64f4eee6b9dae1455c37a496e781b2",
      "transactionType": "CALL",
      "contractName": "MockChainlinkOracle",
      "contractAddress": "0xaAC8EAc22df7eF4350B6cB4453Af07f33210D888",
      "function": "updateAnswer(int256)",
      "arguments": ["100000000"],
      "transaction": {
        "type": "0x02",
        "from": "0xa52a878ce46f233794fee5c976eb2528e17510d7",
        "to": "0xaac8eac22df7ef4350b6cb4453af07f33210d888",
        "gas": "0x2714b",
        "value": "0x0",
        "data": "0xa87a20ce0000000000000000000000000000000000000000000000000000000005f5e100",
        "nonce": "0xc0",
        "accessList": []
      },
      "additionalContracts": [],
      "isFixedGasLimit": false
    },
    {
      "hash": "0xf8ff845258aed2eec59d087abf04cf10f10918c6331c917968d31b81e37f98c0",
      "transactionType": "CALL",
      "contractName": null,
      "contractAddress": "0x28b0949cEe77b88Dd3093D8b90F0445Cc7f5bD6b",
      "function": "swap((bool,bool,uint256,uint256,uint256,address,address,(bytes,bytes,bytes,bytes)))",
      "arguments": [
        "(false, false, 1000000, 0, 1709749336, 0xA52A878CE46F233794FeE5c976eb2528e17510d7, 0x4F5e836680b9aac98dFA2af775D29Bdd8C68cB91, (0x0000000000000000000000000000000000000000000000008ac7230489e8000000000000000008fc00000000000000000000000000000000000000000000000000000000000008fc000000000000000000000000000000000000000000000000000000000000000000000000000000000000002ff55425a98a38000000000000000000000000000000000000a52a878ce46f233794fee5c976eb2528e17510d7000000000000000000000000a52a878ce46f233794fee5c976eb2528e17510d70000000000000000000000000000000000000000000000000000000065e72db80000000000000000000000000000000000000000000000000000000000000078000000000000000000000000000000000000000000000000000000000000000a000000000000000000000000000000000000000000000000000000000000006400000000000000000000000000000000000000000000000000000000000001f4000000000000000000000000000000000000000000000000000000000000000a000000000000000000000000000000000000000000000000000000000000006400000000000000000000000000000000000000000000000000000000000001f40000000000000000000000000000000000000000000000000000000000000001000000000000000000000000000000000000000000000000000000000000000000000000000000000000000000000000000000000000000000000000000002200000000000000000000000000000000000000000000000000000000000000041b789de454d125fe76d7118d77aee83ff227c4173bf6815c268531631d9765c0b7ba15f8653769dbe24c8463602019243c0d1baf684b4938ba0bcd809921391601b00000000000000000000000000000000000000000000000000000000000000, 0x, 0x, 0x31))"
      ],
      "transaction": {
        "type": "0x02",
        "from": "0xa52a878ce46f233794fee5c976eb2528e17510d7",
        "to": "0x28b0949cee77b88dd3093d8b90f0445cc7f5bd6b",
        "gas": "0x49174",
        "value": "0x0",
        "data": "0x3732900900000000000000000000000000000000000000000000000000000000000000200000000000000000000000000000000000000000000000000000000000000000000000000000000000000000000000000000000000000000000000000000000000000000000000000000000000000000000000000000000000000000000f424000000000000000000000000000000000000000000000000000000000000000000000000000000000000000000000000000000000000000000000000065e8b458000000000000000000000000a52a878ce46f233794fee5c976eb2528e17510d70000000000000000000000004f5e836680b9aac98dfa2af775d29bdd8c68cb910000000000000000000000000000000000000000000000000000000000000100000000000000000000000000000000000000000000000000000000000000008000000000000000000000000000000000000000000000000000000000000003400000000000000000000000000000000000000000000000000000000000000360000000000000000000000000000000000000000000000000000000000000038000000000000000000000000000000000000000000000000000000000000002a00000000000000000000000000000000000000000000000008ac7230489e8000000000000000008fc00000000000000000000000000000000000000000000000000000000000008fc000000000000000000000000000000000000000000000000000000000000000000000000000000000000002ff55425a98a38000000000000000000000000000000000000a52a878ce46f233794fee5c976eb2528e17510d7000000000000000000000000a52a878ce46f233794fee5c976eb2528e17510d70000000000000000000000000000000000000000000000000000000065e72db80000000000000000000000000000000000000000000000000000000000000078000000000000000000000000000000000000000000000000000000000000000a000000000000000000000000000000000000000000000000000000000000006400000000000000000000000000000000000000000000000000000000000001f4000000000000000000000000000000000000000000000000000000000000000a000000000000000000000000000000000000000000000000000000000000006400000000000000000000000000000000000000000000000000000000000001f40000000000000000000000000000000000000000000000000000000000000001000000000000000000000000000000000000000000000000000000000000000000000000000000000000000000000000000000000000000000000000000002200000000000000000000000000000000000000000000000000000000000000041b789de454d125fe76d7118d77aee83ff227c4173bf6815c268531631d9765c0b7ba15f8653769dbe24c8463602019243c0d1baf684b4938ba0bcd809921391601b000000000000000000000000000000000000000000000000000000000000000000000000000000000000000000000000000000000000000000000000000000000000000000000000000000000000000000000000000000000000000000000000000000000000000000000000000000000000000000000000000000000000013100000000000000000000000000000000000000000000000000000000000000",
        "nonce": "0xc1",
        "accessList": []
      },
      "additionalContracts": [],
      "isFixedGasLimit": false
    }
  ],
  "receipts": [],
  "libraries": [],
  "pending": [
    "0x7cd48bd9e272225944bca49609eea8309446737dae89d84210701a3c578d53e6",
    "0xd31347b54e2df4f8d5c9c15e940f8f0ac93d0a3794801a7d21e7652b35b203bf",
    "0x732958d10edaf414e6dd78e9316d715d2b3d8c6f996aa1d3c92445fda5e37ff6",
    "0x346890a778ec4614441b39a24c075f996463a79d778f1016bfceb1b8db1adf0b",
    "0x854c2ec30065fae692e6f3919fb61100ea2371f749caca0a0dfc1c5906462376",
    "0xa3d5d49a31df5100e2e8bafa693a28e42ad16e27b973bf08b9fc6f68ae70bab4",
    "0xb1195a889904cf85abf53371e3a4a08fba64f4eee6b9dae1455c37a496e781b2",
    "0xf8ff845258aed2eec59d087abf04cf10f10918c6331c917968d31b81e37f98c0"
  ],
  "returns": {},
  "timestamp": 1709649396,
  "chain": 11155111,
  "multi": false,
  "commit": "a46833c"
}
