{
  "transactions": [
    {
      "hash": "0xa221823a6f2cf9dbd0f6ab75ebbbb7296350f3c492543071e47ac86d7f35a794",
      "transactionType": "CALL",
      "contractName": null,
      "contractAddress": "0xaDbA01d7903D4055DCA19eB6778f08EaB42C7589",
      "function": "setPoolManager(address)",
      "arguments": ["0x5E29dD90997caD3816FF08C2dE085D4DaD93e757"],
      "transaction": {
        "type": "0x02",
        "from": "0xeed403d7cacfc3c228b816b87c7a97513f782f01",
        "to": "0xadba01d7903d4055dca19eb6778f08eab42c7589",
        "gas": "0xa493",
        "value": "0x0",
        "data": "0x7aef67150000000000000000000000005e29dd90997cad3816ff08c2de085d4dad93e757",
        "nonce": "0x8",
        "accessList": []
      },
      "additionalContracts": [],
      "isFixedGasLimit": false
    }
  ],
  "receipts": [],
  "libraries": [],
  "pending": ["0xa221823a6f2cf9dbd0f6ab75ebbbb7296350f3c492543071e47ac86d7f35a794"],
  "returns": {},
  "timestamp": 1709397867,
  "chain": 100,
  "multi": false,
  "commit": "c67dcd4"
}
