{
  "transactions": [
    {
      "hash": "0xa221823a6f2cf9dbd0f6ab75ebbbb7296350f3c492543071e47ac86d7f35a794",
      "transactionType": "CALL",
      "contractName": null,
      "contractAddress": "0xaDbA01d7903D4055DCA19eB6778f08EaB42C7589",
      "function": "setPoolManager(address)",
      "arguments": ["0x5E29dD90997caD3816FF08C2dE085D4DaD93e757"],
      "transaction": {
        "type": "0x02",
        "from": "0xeed403d7cacfc3c228b816b87c7a97513f782f01",
        "to": "0xadba01d7903d4055dca19eb6778f08eab42c7589",
        "gas": "0xa493",
        "value": "0x0",
        "data": "0x7aef67150000000000000000000000005e29dd90997cad3816ff08c2de085d4dad93e757",
        "nonce": "0x8",
        "accessList": []
      },
      "additionalContracts": [],
      "isFixedGasLimit": false
    }
  ],
  "receipts": [
    {
      "transactionHash": "0xa221823a6f2cf9dbd0f6ab75ebbbb7296350f3c492543071e47ac86d7f35a794",
      "transactionIndex": "0x2",
      "blockHash": "0x6250a399842d3f6363292c4d1f5e43785af7ddd2bafc351fbc43e6421d0b1727",
      "blockNumber": "0x1f36ac0",
      "from": "0xeED403D7cacFC3c228b816B87C7a97513f782F01",
      "to": "0xaDbA01d7903D4055DCA19eB6778f08EaB42C7589",
      "cumulativeGasUsed": "0xd83652",
      "gasUsed": "0x7727",
      "contractAddress": null,
      "logs": [
        {
          "address": "0xaDbA01d7903D4055DCA19eB6778f08EaB42C7589",
          "topics": ["0x181b126158932b45e642aeb48f81b946563bf584a35e78d6a25b013c8d41ff8f"],
          "data": "0x0000000000000000000000005e29dd90997cad3816ff08c2de085d4dad93e757",
          "blockHash": "0x6250a399842d3f6363292c4d1f5e43785af7ddd2bafc351fbc43e6421d0b1727",
          "blockNumber": "0x1f36ac0",
          "transactionHash": "0xa221823a6f2cf9dbd0f6ab75ebbbb7296350f3c492543071e47ac86d7f35a794",
          "transactionIndex": "0x2",
          "logIndex": "0xbbe",
          "removed": false
        }
      ],
      "status": "0x1",
      "logsBloom": "0x00000000000000800000000000000000000200000000000000000000000000000000000000000000000000000000000000000000000000000000000000000000000000000000000000000000000000000000000000000000000000000000000000000000000000000000000000000000000000000000000000000000000000000000000000000000000000000000000000080000000000000000000000000000000000000000000000000000000000000000000000000000000000000000000000000000000000000000100000000000000000000000000000000000000000000000000010000000000000000000000000000000000000000000000200000000",
      "type": "0x2",
      "effectiveGasPrice": "0xb2d05e97"
    }
  ],
  "libraries": [],
  "pending": [],
  "returns": {},
  "timestamp": 1709397874,
  "chain": 100,
  "multi": false,
  "commit": "c67dcd4"
}
